:020000040800F2
:1000000000000120FD030008FB030008F9030008BD
:10001000F9030008F9030008F903000800000000D4
:10002000000000000000000000000000FB030008CA
:10003000FB03000800000000FB030008FB030008AE
:10004000F9030008F9030008F9030008F9030008A0
:10005000F9030008F9030008F9030008F903000890
:10006000F9030008F9030008F9030008F903000880
:10007000F9030008F9030008F9030008F903000870
:10008000F9030008F9030008F9030008F903000860
:10009000F9030008F9030008F9030008F903000850
:1000A000F9030008F9030008F9030008F903000840
:1000B000F9030008F9030008F9030008F903000830
:1000C000F9030008F9030008F9030008F903000820
:1000D000F9030008F9030008F9030008F903000810
:1000E000F9030008F9030008F9030008F903000800
:1000F000F9030008F9030008F9030008F9030008F0
:10010000F9030008F9030008F9030008F9030008DF
:10011000F9030008F9030008F9030008F9030008CF
:10012000F9030008F9030008F9030008F9030008BF
:10013000F9030008F9030008F9030008F9030008AF
:10014000F9030008F9030008F9030008F90300089F
:10015000F9030008F9030008F9030008F90300088F
:10016000F9030008F9030008F9030008F90300087F
:10017000F9030008F9030008F9030008F90300086F
:10018000F9030008F9030008F9030008F90300085F
:10019000F9030008F9030008F9030008F90300084F
:1001A000F9030008F9030008F90300082DE9F843F2
:1001B00040F2036000F0C1F84FF4C06000F0BDF8F9
:1001C00040F6110000F0B9F82C48DFF8B0902C4E42
:1001D000DFF8BC804FF480530022012100F063F867
:1001E000042328480022022100F05DF8042225485B
:1001F000072100F078F822484FF4E13100F0ACF824
:100200001F48082100F0BEF81D48002100F0C3F887
:100210001B48082100F0CBF81948002100F0C1F874
:100220001748002100F0C9F8154800F0CCF8002468
:1002300025464FF48051484600F02CF804F1300177
:1002400089B2304600F0C4F80F4B092C05F10107C4
:1002500008FB05F514BF01340024B3EB351F07D3A9
:100260000D21304600F0B4F80A21304600F0B0F815
:10027000064B00BF013BFCD13D46DAE7000C0240D3
:10028000004400400000024033333303C0C62D0059
:10029000CDCCCCCC436901EA030221EA030141EA57
:1002A0000241816170472DE9F0410568C46800266C
:1002B0004FF0030E43FA06F7FF070DD577000EFA4D
:1002C00007FC01FA07F825EA0C0524EA0C0402FAF7
:1002D00007F748EA05053C430136102EEAD10560D0
:1002E000C460BDE8F081F0B5076A466A00234FF0AC
:1002F0000F0C42FA03F4E50707D59D000CFA05F44C
:1003000027EA040701FA05F52F430133082BF0D142
:100310004FF00F0C42FA03F4E40708D59C00203C90
:100320000CFA04F526EA050601FA04F42643013323
:10033000102BEFD107624662F0BD430903F1804301
:1003400003F50E3300F01F001968012202FA00F0D5
:100350000843186070470000074A084B10B520F4A6
:10036000806494421B6804BF054B1B6803EB510378
:10037000B3FBF1F1816010BD0010014000000020CE
:1003800004000020C36808290CBF23F4805343F401
:100390008053C3607047036923F4405319430161DC
:1003A0007047C36823F4C0631943C1607047C368D2
:1003B00023F00C031943C1607047436923F4407371
:1003C000194341617047C36843F40053C3607047E9
:1003D00013B50446019100F00BF80199204602B0D4
:1003E000BDE8104000F000B8C1F30801416070475B
:1003F00003681B06FCD57047FEE7704738B51A4AFC
:100400001A4B1B498B421BD31A4A002193421CD31F
:10041000194A1A4C13681A4D43F400731360536F52
:1004200043F470035367AC4212D3164C164DAC42E2
:1004300012D3FFF7BBFE154C154DAC4210D338BD9F
:1004400052F8040B43F8040BDCE743F8041BDDE728
:1004500054F8043B9847E6E754F8043B9847E6E72E
:1004600054F8043B9847E8E7940400080000002093
:10047000080000200800002014ED00E094040008AB
:1004800094040008940400089404000894040008EC
:0404900094040008C8
:080494000024F4000024F40030
:04000005080003FDEF
:00000001FF
